:020000040800F2
:1000000000000524D95600088544000887440008EC
:10001000894400088B4400088D440008000000005B
:10002000000000000000000000000000E1230108C3
:100030008F4400080000000081240108E524010825
:100040002957000829570008295700082957000890
:100050002957000829570008295700082957000880
:10006000295700082957000829570008914400081B
:10007000A1440008B1440008C1440008D14400086C
:10008000E1440008F1440008295700080145000830
:10009000114500082145000831450008295700088E
:1000A0002957000829570008295700082957000830
:1000B0002957000829570008295700082957000820
:1000C000295700082957000829570008414500080A
:1000D000295700085145000819460008294600081C
:1000E0002957000829570008000000002957000878
:1000F00029570008295700082957000839460008E1
:1001000029570008295700082957000829570008CF
:100110002957000849460008BD450108295700082D
:10012000614600087146000881460008295700080A
:100130002957000829570008295700089146000848
:1001400000000000000000000000000000000000AF
:10015000295700082957000829570008295700087F
:10016000295700082957000829570008295700086F
:1001700029570008A9460008295700080000000078
:100180002957000829570008B946000829570008D0
:10019000295700082957000829570008295700083F
:1001A00029570008295700082957000800000000B7
:1001B000295700082957000829570008295700081F
:1001C000295700082957000800000000000000001F
:1001D0000000000000000000295700080000000097
:1001E000000000000000000000000000000000000F
:1001F00000000000000000002957000829570008EF
:100200002957000829570008000000002957000856
:1002100029570008295700082957000829570008BE
:1002200029570008000000002957000800000000BE
:100230002957000829570008000000002957000826
:10024000295700082957000829570008295700088E
:10025000295700082957000829570008295700087E
:10026000295700082957000829570008295700086E
:1002700029570008295700082957000800000000E6
:10028000295700082957000829570008295700084E
:10029000000000002957000829570008000000004E
:1002A00000000000295700082957000829570008B6
:1002B0009147000829570008295700084D480008B1
:0C02C0005D4800086D4800082957000840
:1003000010B5054C237833B9044B13B10448AFF34F
:1003100000800123237010BD100D00240000000098
:10032000DCCC010808B5034B1BB103490348AFF30C
:10033000008008BD00000000140D0024DCCC010882
:1003400081F0004102E000BF83F0004330B54FEA86
:1003500041044FEA430594EA050F08BF90EA020FF3
:100360001FBF54EA000C55EA020C7FEA645C7FEA86
:10037000655C00F0E2804FEA5454D4EB5555B8BFA9
:100380006D420CDD2C4480EA020281EA030382EA1A
:10039000000083EA010180EA020281EA0303362DAC
:1003A00088BF30BD11F0004F4FEA01314FF4801C7F
:1003B0004CEA113102D0404261EB410113F0004F91
:1003C0004FEA03334CEA133302D0524263EB430348
:1003D00094EA050F00F0A780A4F10104D5F1200EE6
:1003E0000DDB02FA0EFC22FA05F2801841F1000141
:1003F00003FA0EF2801843FA05F359410EE0A5F115
:1004000020050EF1200E012A03FA0EFC28BF4CF045
:10041000020C43FA05F3C01851EBE37101F00045FB
:1004200007D54FF0000EDCF1000C7EEB00006EEB08
:100430000101B1F5801F1BD3B1F5001F0CD3490892
:100440005FEA30004FEA3C0C04F101044FEA4452E9
:1004500012F5800F80F09A80BCF1004F08BF5FEA70
:10046000500C50F1000041EB045141EA050130BD50
:100470005FEA4C0C404141EB0101013C28BFB1F562
:10048000801FE9D291F0000F04BF01460020B1FAAD
:1004900081F308BF2033A3F10B03B3F120020CDA80
:1004A0000C3208DD02F1140CC2F10C0201FA0CF05E
:1004B00021FA02F10CE002F11402D8BFC2F1200CC3
:1004C00001FA02F120FA0CFCDCBF41EA0C01904079
:1004D000E41AA2BF01EB0451294330BD6FEA0404C2
:1004E0001F3C1CDA0C340EDC04F11404C4F12002AD
:1004F00020FA04F001FA02F340EA030021FA04F3BF
:1005000045EA030130BDC4F10C04C4F1200220FA15
:1005100002F001FA04F340EA0300294630BD21FA53
:1005200004F0294630BD94F0000F83F4801306BF19
:1005300081F480110134013D4EE77FEA645C18BF0D
:100540007FEA655C29D094EA050F08BF90EA020FA4
:1005500005D054EA000C04BF1946104630BD91EA9C
:10056000030F1EBF0021002030BD5FEA545C05D19F
:100570004000494128BF41F0004130BD14F58004DE
:100580003CBF01F5801130BD01F0004545F0FE4152
:1005900041F470014FF0000030BD7FEA645C1ABF87
:1005A000194610467FEA655C1CBF0B46024650EABE
:1005B000013406BF52EA033591EA030F41F40021EA
:1005C00030BD00BF90F0000F04BF0021704730B570
:1005D0004FF4806404F132044FF000054FF0000145
:1005E00050E700BF90F0000F04BF0021704730B506
:1005F0004FF4806404F1320410F0004548BF4042DB
:100600004FF000013EE700BF42004FEAE2014FEA2F
:1006100031014FEA02701FBF12F07F4393F07F4F0A
:1006200081F06051704732F07F4208BF704793F00D
:100630007F4F04BF41F40021704730B54FF4607420
:1006400001F0004521F000411CE700BF50EA010223
:1006500008BF704730B54FF000050AE050EA0102CC
:1006600008BF704730B511F0004502D5404261EB3C
:1006700041014FF4806404F132045FEA915C3FF47D
:10068000D8AE4FF003025FEADC0C18BF03325FEA1A
:10069000DC0C18BF033202EBDC02C2F1200300FACB
:1006A00003FC20FA02F001FA03FE40EA0E0021FAF0
:1006B00002F11444BDE600BF70B54FF0FF0C4CF4DE
:1006C000E06C1CEA11541DBF1CEA135594EA0C0F90
:1006D00095EA0C0F00F0DEF82C4481EA030621EACB
:1006E0004C5123EA4C5350EA013518BF52EA033506
:1006F00041F4801143F4801338D0A0FB02CE4FF0B8
:100700000005E1FB02E506F00042E0FB03E54FF0E7
:100710000006E1FB03569CF0000F18BF4EF0010EDF
:10072000A4F1FF04B6F5007F64F5407404D25FEADB
:100730004E0E6D4146EB060642EAC62141EA55518E
:100740004FEAC52040EA5E504FEACE2EB4F1FD0CD0
:1007500088BFBCF5E06F1ED8BEF1004F08BF5FEA4E
:10076000500E50F1000041EB045170BD06F0004600
:1007700046EA010140EA020081EA0301B4EB5C04AD
:10078000C2BFD4EB0C0541EA045170BD41F48011A5
:100790004FF0000E013C00F3AB8014F1360FDEBFCA
:1007A000002001F0004170BDC4F10004203C35DAA6
:1007B0000C341BDC04F11404C4F1200500FA05F329
:1007C00020FA04F001FA05F240EA020001F00042CA
:1007D00021F0004110EBD37021FA04F642EB060140
:1007E0005EEA430E08BF20EAD37070BDC4F10C046A
:1007F000C4F1200500FA04F320FA05F001FA04F22E
:1008000040EA020001F0004110EBD37041F1000119
:100810005EEA430E08BF20EAD37070BDC4F1200524
:1008200000FA05F24EEA020E20FA04F301FA05F28C
:1008300043EA020321FA04F001F0004121FA04F234
:1008400020EA020000EBD3705EEA430E08BF20EA04
:10085000D37070BD94F0000F0FD101F0004640003E
:1008600041EB010111F4801F08BF013CF7D041EAC0
:10087000060195F0000F18BF704703F000465200C4
:1008800043EB030313F4801F08BF013DF7D043EA95
:100890000603704794EA0C0F0CEA135518BF95EA4B
:1008A0000C0F0CD050EA410618BF52EA4306D1D1D2
:1008B00081EA030101F000414FF0000070BD50EAF1
:1008C000410606BF1046194652EA430619D094EA7B
:1008D0000C0F02D150EA013613D195EA0C0F05D165
:1008E00052EA03361CBF104619460AD181EA0301B9
:1008F00001F0004141F0FE4141F470014FF0000071
:1009000070BD41F0FE4141F4780170BD70B54FF00B
:10091000FF0C4CF4E06C1CEA11541DBF1CEA13558B
:1009200094EA0C0F95EA0C0F00F0A7F8A4EB05046D
:1009300081EA030E52EA03354FEA013100F0888064
:100940004FEA03334FF0805545EA131343EA12632D
:100950004FEA022245EA111545EA10654FEA0026E2
:100960000EF000419D4208BF964244F1FD0404F59B
:10097000407402D25B084FEA3202B61A65EB0305F7
:100980005B084FEA32024FF480104FF4002CB6EBB4
:10099000020E75EB030E22BFB61A754640EA0C0034
:1009A0005B084FEA3202B6EB020E75EB030E22BF74
:1009B000B61A754640EA5C005B084FEA3202B6EBB5
:1009C000020E75EB030E22BFB61A754640EA9C0074
:1009D0005B084FEA3202B6EB020E75EB030E22BF44
:1009E000B61A754640EADC0055EA060E18D04FEA02
:1009F000051545EA16754FEA06164FEAC30343EAA2
:100A000052734FEAC2025FEA1C1CC0D111F4801F6E
:100A10000BD141EA00014FF000004FF0004CB6E767
:100A200011F4801F04BF01430020B4F1FD0C88BF06
:100A3000BCF5E06F3FF6AFAEB5EB030C04BFB6EB11
:100A4000020C5FEA500C50F1000041EB045170BD04
:100A50000EF0004E4EEA113114EB5C04C2BFD4EB31
:100A60000C0541EA045170BD41F480114FF0000EB5
:100A7000013C90E645EA060E8DE60CEA135594EA31
:100A80000C0F08BF95EA0C0F3FF43BAF94EA0C0F34
:100A90000AD150EA01347FF434AF95EA0C0F7FF4A9
:100AA00025AF104619462CE795EA0C0F06D152EAFD
:100AB00003353FF4FDAE1046194622E750EA4106E1
:100AC00018BF52EA43067FF4C5AE50EA41047FF4F2
:100AD0000DAF52EA43057FF4EBAE12E74FEA410255
:100AE000B2F1E04324BFB3F5001CDCF1FE5C0DD98C
:100AF00001F0004C4FEAC0024CEA5070B2F1004FD6
:100B000040EB830008BF20F00100704711F0804FD8
:100B100021D113F13872BCBF01F00040704741F49D
:100B200080114FEA5252C2F11802C2F1200C10FAA1
:100B30000CF320FA02F018BF40F001004FEAC12385
:100B40004FEAD32303FA0CFC40EA0C0023FA02F329
:100B50004FEA4303CCE77FEA625307D150EA0133FF
:100B60001EBF4FF0FE4040F44000704701F00040CF
:100B700040F0FE4040F40000704700BF53B94AB94E
:100B8000002908BF00281CBF4FF0FF314FF0FF3095
:100B900000F074B9ADF1080C6DE904CE00F006F870
:100BA000DDF804E0DDE9022304B070472DE9F047E9
:100BB000089D04468E46002B4DD18A42944669D941
:100BC000B2FA82F252B101FA02F3C2F1200120FA24
:100BD00001F10CFA02FC41EA030E94404FEA1C4872
:100BE000210CBEFBF8F61FFA8CF708FB16E341EA6E
:100BF000034306FB07F199420AD91CEB030306F1F4
:100C0000FF3080F01F81994240F21C81023E634414
:100C10005B1AA4B2B3FBF8F008FB103344EA0344B8
:100C200000FB07F7A7420AD91CEB040400F1FF33CD
:100C300080F00A81A74240F207816444023840EA0A
:100C40000640E41B00261DB1D4400023C5E9004343
:100C50003146BDE8F0878B4209D9002D00F0EF80C6
:100C60000026C5E9000130463146BDE8F087B3FAF9
:100C700083F6002E4AD18B4202D3824200F2F980E1
:100C8000841A61EB030301209E46002DE0D0C5E9E4
:100C9000004EDDE702B9FFDEB2FA82F2002A40F030
:100CA0009280A1EB0C014FEA1C471FFA8CFE012633
:100CB000200CB1FBF7F307FB131140EA01410EFBD7
:100CC00003F0884208D91CEB010103F1FF3802D27E
:100CD000884200F2CB804346091AA4B2B1FBF7F078
:100CE00007FB101144EA01440EFB00FEA64508D99B
:100CF0001CEB040400F1FF3102D2A64500F2BB80D8
:100D00000846A4EB0E0440EA03409CE7C6F1200726
:100D1000B34022FA07FC4CEA030C20FA07F401FA6C
:100D200006F31C43F9404FEA1C4900FA06F3B1FBF5
:100D3000F9F8200C1FFA8CFE09FB181140EA01415A
:100D400008FB0EF0884202FA06F20BD91CEB0101F7
:100D500008F1FF3A80F08880884240F28580A8F14F
:100D600002086144091AA4B2B1FBF9F009FB1011A1
:100D700044EA014100FB0EFE8E4508D91CEB01013F
:100D800000F1FF346CD28E456AD90238614440EAE2
:100D90000840A0FB0294A1EB0E01A142C846A64662
:100DA00056D353D05DB1B3EB080261EB0E0101FAEB
:100DB00007F722FA06F3F1401F43C5E90071002648
:100DC0003146BDE8F087C2F12003D8400CFA02FC9E
:100DD00021FA03F3914001434FEA1C471FFA8CFEAE
:100DE000B3FBF7F007FB10360B0C43EA064300FB9E
:100DF0000EF69E4204FA02F408D91CEB030300F13C
:100E0000FF382FD29E422DD9023863449B1B89B2F2
:100E1000B3FBF7F607FB163341EA034106FB0EF37B
:100E20008B4208D91CEB010106F1FF3816D28B4228
:100E300014D9023E6144C91A46EA004638E72E46F4
:100E4000284605E70646E3E61846F8E64B45A9D2EC
:100E5000B9EB020864EB0C0E0138A3E74646EAE75B
:100E6000204694E74046D1E7D0467BE7023B614409
:100E700032E7304609E76444023842E7704700BF72
:100E8000844641EA000313F003036DD1403A41D395
:100E900051F8043B40F8043B51F8043B40F8043B54
:100EA00051F8043B40F8043B51F8043B40F8043B44
:100EB00051F8043B40F8043B51F8043B40F8043B34
:100EC00051F8043B40F8043B51F8043B40F8043B24
:100ED00051F8043B40F8043B51F8043B40F8043B14
:100EE00051F8043B40F8043B51F8043B40F8043B04
:100EF00051F8043B40F8043B51F8043B40F8043BF4
:100F000051F8043B40F8043B51F8043B40F8043BE3
:100F1000403ABDD2303211D351F8043B40F8043B83
:100F200051F8043B40F8043B51F8043B40F8043BC3
:100F300051F8043B40F8043B103AEDD20C3205D393
:100F400051F8043B40F8043B043AF9D2043208D08B
:100F5000D2071CBF11F8013B00F8013B01D30B88FD
:100F600003806046704700BF082A13D38B078DD0DB
:100F700010F003038AD0C3F10403D21ADB071CBFAD
:100F800011F8013B00F8013B80D331F8023B20F817
:100F9000023B7BE7043AD9D3013A11F8013B00F850
:100FA000013BF9D20B7803704B7843708B788370D8
:100FB00060467047000000000000000000000000D4
:100FC00090F800F06DE9024520F007016FF0000C89
:100FD00010F0070491F820F040F049804FF0000431
:100FE0006FF00700D1E9002391F840F000F108000C
:100FF00082FA4CF2A4FA8CF283FA4CF3A2FA8CF344
:101000004BBBD1E9022382FA4CF200F10800A4FAAA
:101010008CF283FA4CF3A2FA8CF3E3B9D1E90423FE
:1010200082FA4CF200F10800A4FA8CF283FA4CF335
:10103000A2FA8CF37BB9D1E9062301F1200182FAEF
:101040004CF200F10800A4FA8CF283FA4CF3A2FAF5
:101050008CF3002BC6D0002A04BF04301A4612BA03
:10106000B2FA82F2FDE8024500EBD2007047D1E906
:10107000002304F00305C4F100004FEAC50514F095
:10108000040F91F840F00CFA05F562EA05021CBF66
:1010900063EA050362464FF00004A9E70000000080
:1010A00001F0FF01102A2BDB10F0070F08D010F819
:1010B000013B013A8B422DD010F0070F42B3F6D11D
:1010C000F0B441EA012141EA014122F007047FF036
:1010D00000070023F0E80256083C85EA010586EA8D
:1010E000010685FA47F5A3FA87F586FA47F6A5FAC9
:1010F00087F68EB9EED1F0BC01F0FF0102F00702D5
:1011000032B110F8013B013A83EA010313B1F8D17F
:101110000020704701387047002D06BF3546033860
:10112000073815F0010F07D1013015F4807F02BF99
:10113000013015F4C03F0130F0BC0138704700BFEA
:101140004FF0FF3C06E000BF4FF0010C02E000BF93
:101150004FF0010C4DF804CD4FEA410C7FEA6C5C76
:101160004FEA430C18BF7FEA6C5C1BD001B050EA19
:10117000410C0CBF52EA430C91EA030F02BF90EA04
:10118000020F0020704710F1000F91EA030F58BFC3
:10119000994208BF90422CBFD8176FEAE37040F025
:1011A000010070474FEA410C7FEA6C5C02D150EAC3
:1011B000013C07D14FEA430C7FEA6C5CD6D152EA7E
:1011C000033CD3D05DF8040B704700BF8446104643
:1011D00062468C461946634600E000BF01B5FFF742
:1011E000B7FF002848BF10F1000F01BD4DF808ED12
:1011F000FFF7F4FF0CBF012000205DF808FB00BFE3
:101200004DF808EDFFF7EAFF34BF012000205DF83C
:1012100008FB00BF4DF808EDFFF7E0FF94BF012089
:1012200000205DF808FB00BF4DF808EDFFF7CEFF8A
:1012300094BF012000205DF808FB00BF4DF808EDC9
:10124000FFF7C4FF34BF012000205DF808FB00BF9A
:101250004FEA410C7FEA6C5C02D150EA013C0AD1B2
:101260004FEA430C7FEA6C5C02D152EA033C02D1A4
:101270004FF0000070474FF0010070474A0011D254
:1012800012F5001211D20DD56FF47873B3EB6252E0
:101290000ED44FEAC12343F0004343EA505323FAEC
:1012A00002F070474FF00000704750EA013002D161
:1012B0004FF0FF3070474FF00000704738B5002204
:1012C000002304460D46FFF79BFF28B92046294618
:1012D000BDE8384000F00AB8204605F1004100F0B2
:1012E00005F8404261EB410138BD00BFD0B50C4B61
:1012F000002206460F46FFF7DFF9FFF7BFFF04465F
:10130000FFF760F9074B0022FFF7D6F902460B46BC
:1013100030463946FFF718F8FFF7B0FF2146D0BD39
:101320000000F03D0000F04138B504460D461D4B6D
:1013300093ED0B0A80ED030A5B6C0361DFED1A7A13
:1013400077EEC07A91ED000ADFED180A37EEC00A99
:101350001BF0DCFAB5EEC00AF1EE10FA1DDDDFED90
:10136000147A30EE670A84ED000AD4ED047AF1EEC7
:10137000677A95ED067A77EEC77AC4ED017A95ED36
:10138000357A77EEC77ADFED0B6A87EEA67A85EDC0
:10139000347A6368C5F8D43038BDDFED047A30EEB6
:1013A000270ADCE714150024DB0FC9BFDB0FC94097
:1013B000DB0F49406F12033BD0ED007A67EE807A75
:1013C00067EE807A67EE807A90ED017A27EE007AF8
:1013D00027EE007A77EE877A90ED027A27EE000A00
:1013E00037EE800AD0ED037A30EE270A704700000E
:1013F000044BC362044A0263426383630023C363F2
:10140000704700BFF6285C3EB81E853E91ED907A8D
:10141000DFED1F7A37EE277A80ED387AD1F8443243
:10142000C0F8F830D1F84832C0F8A431D1F85033C0
:10143000C0F8EC30D1F85433C0F80031D1F858334B
:10144000C0F8A83191ED4C7A77EEC77AC0ED017AF9
:10145000D1ED4D7AF1EE677AC0ED077AD1ED4E7A93
:10146000F1EE677AC0ED327AD1ED087AF1EE677A63
:10147000C0ED047AD1ED097AF1EE677AC0ED097A10
:10148000D1ED0A7AF1EE677AC0ED337A704700BF8A
:10149000DB0F494010B52DED028B82B0044690ED74
:1014A0000B8A90ED010A15F0A1F828EE008A84ED70
:1014B0001B8A94ED0F8AD4ED0E8A94ED040A15F080
:1014C00095F868EE808A38EE288A84ED1D8A94EDBE
:1014D0000B8A94ED010A15F00FF928EE008A84EDCD
:1014E0001E8A94ED0E8A94ED040A15F005F928EE93
:1014F000000A84ED200AD4ED1D7A94ED1B7A77EE74
:10150000C77A67EEA77A94ED1E7A30EE470A20EE8E
:10151000000A77EE807AF5EEC07AF1EE10FAC0F2AA
:10152000CA81F1EEE77AC4ED107AD4ED0C7A37EE89
:10153000A70AD4ED1D0A94ED1B7A70EEC70A60EE7F
:10154000200AC4ED180A94ED207AD4ED1E6A37EE15
:10155000667A20EE070A84ED190A67EEA77A94ED01
:10156000107A27EE077A77EE877A94ED0D7A27EED8
:10157000077A77EEC77AC4ED1A7A20EEA07A60EE89
:10158000006A37EE267A67EEA76A37EE667AB5EE1E
:10159000C07AF1EE10FAC0F29181B1EEC77A01A8DB
:1015A00070EEA70A30EE070A15F028F9DDED017A92
:1015B00037EEA77A84ED027ADFEDC37A77EEC77A49
:1015C00094ED010A77EE807A94ED047A77EE877ACB
:1015D000C4ED037A94ED0B8A15F008F828EE008A22
:1015E000D4ED0C8A94ED020A15F000F868EE808ABA
:1015F00038EE288A84ED1C8A94ED0B8A94ED010A5A
:1016000015F07AF828EE008AD4ED0C8A94ED020ADF
:1016100015F072F828EE800A38EE000A84ED1F0AF1
:1016200094ED1C7AD4ED0F7AF6EE006A67EEA67A96
:1016300077EE677A67EEA77A20EE000A77EE807A77
:10164000F5EEC07AF1EE10FAC0F23B81F1EEE77AE6
:10165000C4ED0A7AD4ED1C0AD4ED0F7AB6EE007A06
:1016600067EE877A204670EEE70A94ED1F0A15F0C0
:10167000C5F8D4ED007A94ED057A37EEC77ADFED40
:10168000936A87EE266A84ED066AC4ED057AD4ED86
:101690000A5A94ED126A35EEC66A86EE267A84ED11
:1016A000117AC4ED125A94ED136A37EE466AC6EE0B
:1016B000265AC4ED145A84ED137A94ED0B8A94EDF6
:1016C000030A37EEC00A15F017F828EE008A94EDE9
:1016D000010AD4ED027A30EE670A15F00DF828EE13
:1016E000008A94ED030AD4ED027A30EE670A15F011
:1016F00003F8C8EE007AC4ED257A94ED0B8A94EDD8
:10170000000AD4ED037A30EE670A14F06FFF28EE7A
:10171000008A94ED010AD4ED027A30EE670A14F0E3
:10172000EBFF28EE008AD4ED0A8A94ED030AD4ED8B
:10173000027A30EE670A14F0DFFF68EE808AC8EEA6
:10174000287AC4ED267A94ED0E8A94ED000AD4ED41
:10175000027A30EE670A14F0CFFF28EE008A94ED8B
:10176000030AD4ED047A30EE670A14F0C5FF28EEC0
:10177000008A94ED030AD4ED027A30EE670A14F081
:10178000BBFFC8EE007AC4ED277A94ED0E8A94ED83
:10179000000AD4ED027A30EE670A14F027FF28EE33
:1017A000008A94ED030AD4ED047A30EE670A14F04F
:1017B000A3FF28EE008AD4ED0A8A94ED030AD4ED43
:1017C000027A30EE670A14F097FF68EE808AC8EE5E
:1017D000287AC4ED287A94ED000AD4ED027A30EE2E
:1017E000670A14F003FFF1EE408A94ED0B8A94ED42
:1017F000010AD4ED027A30EE670A14F07DFF28EE7C
:10180000008AC8EE887AC4ED297A94ED000AD4EDF6
:10181000037A30EE670A14F0E9FEF0EE408A94EDA8
:101820000E8A94ED030AD4ED047A30EE670A14F0C0
:1018300063FF28EE008AC8EE887AC4ED2A7AD4EDD8
:101840000A8A94ED000AD4ED027A30EE670A14F0A9
:1018500053FF68EE808A94ED0B8A94ED010AD4ED73
:10186000027A30EE670A14F047FF28EE008AC8EECD
:10187000887AC4ED2B7AD4ED0A8A94ED000AD4ED6F
:10188000037A30EE670A14F037FF60EE688A94ED51
:101890000E8A94ED030AD4ED047A30EE670A14F050
:1018A0002BFF28EE008AC8EE887AC4ED2C7A02B0AD
:1018B000BDEC028B10BD0023236436E69FED047A55
:1018C0006DE60023A362C5E6DB0F49406F12033BC0
:1018D0000000000090ED000ADFED167AB4EEE70A92
:1018E000F1EE10FA25D570B52DED028B04460E46AB
:1018F0001546DFED117AB4EEE70AF1EE10FA02DCDC
:10190000BDEC028B70BD14F071FEDFED0C7A87EE3A
:10191000808A05EBC505D4ED0B0A96ED0A0A084846
:1019200000EBC50005F026FA38EE008A86ED2D8A18
:10193000E6E770476666A63F6666A6BF0000DC4223
:10194000A40D002470B52DED028B06460D461446FD
:1019500090ED000A14F04AFEBBEE098A20EE088AD8
:1019600004EBC404D6ED0B0A95ED0A0A054800EB1A
:10197000C40005F0FFF938EE008A85ED2D8ABDEC34
:10198000028B70BDA40D002470B52DED028B0546B1
:101990000E46144690ED000A14F0AEFEBBEE098A26
:1019A00020EE088A96ED0A0A28EE008AD5ED070A8D
:1019B00095ED000A70EEC07A9FED187AF4EEC77AC2
:1019C000F1EE10FA1EDDDFED167A30EE270AD5EDC6
:1019D000018AE50004EBC400124B03EBC00005F0E4
:1019E000C9F9F0EE400A2C44B0EE680A0E4800EB4C
:1019F000C40005F0BFF938EE408A86ED2E8ABDECB2
:101A0000028B70BD9FED097AF4EEC77AF1EE10FA01
:101A1000DDD5DFED037A30EE670AD8E7DB0F49400A
:101A2000DB0FC940D811002468120024DB0F49C025
:101A300070B52DED028B05460E46144690ED000A5A
:101A400014F05AFEBBEE098A20EE088A96ED0A0AC7
:101A500028EE008A04EBC404D5ED080A95ED010ACE
:101A6000054800EBC40005F085F938EE408A86EDA4
:101A70002E8ABDEC028B70BD6812002490ED257A91
:101A8000D0ED2D7A27EE277A90ED266AD0ED2E6ADA
:101A900026EE266A37EE467A80ED157A90ED277AA3
:101AA00067EE877A90ED287A66EE876A77EEE67AB7
:101AB000C0ED167A7047000038B52DED028B054653
:101AC0000C4691ED298AD1ED327A28EE278AD1EDA4
:101AD0002A6A91ED337A66EE876A38EE268A81EDBE
:101AE0002F8AD1ED2B6A67EEA67AD1ED2C6A27EE0C
:101AF000267A77EE877AC1ED307A90ED000A14F0FD
:101B000075FD28EE008AD4ED308A95ED000A14F0B8
:101B1000F3FD68EE808AD4ED0A7A88EEA70A38EEE3
:101B2000008A84ED318A204B93ED228AD4ED148A09
:101B300095ED000A14F05AFD68EE808A38EE688A46
:101B4000D4ED117A77EEA77AD5ED018A67EEA88AEF
:101B500095ED000A14F0D0FD68EE808A38EE288AF0
:101B6000D4ED0A8AD4ED347A68EEA78A95ED000A9E
:101B700014F0C2FD68EE808A38EE288AD4ED0A8A15
:101B8000D5ED017A68EEA78A67EEA88A95ED000A7E
:101B900014F02CFD68EE807A38EE278A84ED368AC0
:101BA000BDEC028B38BD00BF1415002470B52DEDBF
:101BB000028B04466B4B93ED037AD3ED027A67EE0A
:101BC000277A694DD5ED006A67EE266A27EE267AF8
:101BD00077EE877A654890ED177A6549D1ED006A0E
:101BE00067EE266A27EE267A77EE877A614A92EDCB
:101BF000007A77EE877AC4ED007AD3ED0B6A93ED25
:101C00000A7A26EE877A95ED006A26EE866A66EEF7
:101C1000866A37EE267AD0ED4E6A91ED006A26EE9E
:101C2000866A66EE866A37EE267AD2ED006A37EE6D
:101C3000267A84ED017A77EE877AC4ED047A94ED02
:101C4000057AF4EEC77AF1EE10FA00F38980474B7B
:101C5000DA6DE261D3F838312362BDEC028B70BDDE
:101C6000F1EE488A28EE088A414E96ED000AB1EE60
:101C7000007A20EE070A20EE270A38EE400A1AF012
:101C800069FE78EEC08AB6EE000A68EE808AD6ED6C
:101C9000007A68EEA78AAB1D04EB8303C3ED018ACB
:101CA00008E0324BDC2202FB0533DA6DAB1D04EB9E
:101CB00083035A600135012DCFDC04EB8503D3ED9E
:101CC000007AF5EEC07AF1EE10FAEADDD4ED056A9D
:101CD00094ED047A86EE870A84ED060A27EE800AE0
:101CE000AB1C04EB830383ED000A1E4B03EB45138F
:101CF00093ED038A1C4BD3ED007A68EE277A1D4BD7
:101D000093ED007A77EE877A77EEC07A174BDC2274
:101D100002FB053393ED177AB5EEC07AF1EE10FAB7
:101D20009EDB28EE080A124E96ED007AF1EE006A6C
:101D300027EE267A67EE277A30EE670A1AF00AFE57
:101D400030EE488AB6EE000A28EE008AD6ED007A18
:101D500028EE278AAB1D04EB830383ED018AA9E7F4
:101D60000025A8E7B81500249C020024340E0024A6
:101D7000A0020024A402002490ED317AF3EE047A4C
:101D8000B4EEE77AF1EE10FA01D501207047002099
:101D9000704700002DE9F04180460F4616460024AA
:101DA0000CE006EB840597ED0A0A454800EB0410A9
:101DB000FFF702FB85ED000A0134E4B20B2CF0D9E9
:101DC0003846FFF7D9FF98B10023FB65D8ED007ABC
:101DD00096ED067A67EE877A98ED017AD6ED076A76
:101DE00027EE267A77EE877AC7ED2E7ABDE8F08166
:101DF00098ED007A9FED336A37EE467AD6ED007A99
:101E000027EE277AD8ED016AD6ED017A66EEA76A49
:101E100037EE267AD8ED096AD6ED027A66EEA76A21
:101E200037EE267AD8ED066AD6ED037A66EEA76A13
:101E300037EE267AD8ED036AD6ED047A66EEA76A05
:101E400037EE267AD8ED046AD6ED057A66EEA76AF3
:101E500037EE267A87ED177AD8ED007A77EEC67AD4
:101E600096ED067A67EE877A98ED017AD6ED076AE5
:101E700027EE267A77EE877A98ED097AD6ED086A0A
:101E800027EE267A77EE877A98ED067AD6ED096AFC
:101E900027EE267A77EE877A98ED037AD6ED0A6AEE
:101EA00027EE267A77EE877A98ED047AD6ED0B6ADC
:101EB00027EE267A77EE877AC7ED2E7A96E700BF6F
:101EC000000000248FC2F53DB4EEE00AF1EE10FAF6
:101ED00011DDD0ED007AF4EEC07AF1EE10FA01DBFC
:101EE00080ED000AD0ED007AF4EEE07AF1EE10FA1F
:101EF00001D5C0ED000A70470F4B1B68012B14D0B1
:101F0000704703EB8C000D4901EB800109680C4A16
:101F100002EB800211600133032BF2DD0CF1010CA6
:101F2000BCF10B0F04DC0023F6E74FF0000CF7E7E1
:101F3000014B00221A60E3E7F4100024341000245F
:101F40000000002480ED030A0B6883600023036017
:101F50004360704770B52DED028B4B4C30252A46FF
:101F60000021204615F00CFD2A460021601915F0CD
:101F700007FD464CDC252A460021204615F000FDD1
:101F80002A460021601915F0FBFC414C48263246D8
:101F90000021204615F0F4FCA51932460021284600
:101FA00015F0EEFC9FED3B8AF0EE480AB1EE000A18
:101FB000394A0021394804F0BFFEDFED398A394E35
:101FC000F0EE480AB0EE680A32460021204604F0DE
:101FD000B3FEF0EE480AB0EE680A32460021284609
:101FE00004F0AAFEF0EE480AB3EE040A2E4A0021DD
:101FF0002E4804F0A1FEF0EE480A9FED2D0A2D4A6E
:1020000000212D4804F098FEF0EE480AB0EE000AD8
:102010002A4A00212A4804F08FFE2A4D2A4CF0EE6D
:10202000480AB0EE080A2A460021204604F084FE41
:10203000F0EE480AB0EE080A2A46002104F14800F2
:1020400004F07AFE214D224CF0EE480AB3EE0E0A5F
:102050002A460021204604F06FFEF0EE480AB3EE57
:102060000E0A2A46002104F1480004F065FE1949D1
:102070009FED190A1948FFF765FF194800F090F91C
:10208000BDEC028B70BD00BF78110024340E00241B
:10209000A40D0024000000000C010024F81200240C
:1020A00000007043CC000024D8000024EC0F002472
:1020B00000000243E400002420110024C00000249A
:1020C0005C0D0024F4000024D81100240001002439
:1020D00068120024F00000246F12033B68110024F2
:1020E000D413002480ED000A90ED027A90ED036A8B
:1020F00077EE066AC7EE267A90ED017A67EE877A68
:1021000086EE267A27EE000A37EE800A80ED010A75
:102110007047000008B5DFED100ADFED102AB0EEC1
:10212000602AF7EE001A9FED0E1AB2EE040A03F0D1
:102130009BFEDFED0C0A9FED0C0A0C4A00210C48B7
:1021400004F0FAFD0C210B480CF092FF05F04AF860
:102150000028FBD108BD00BF6F12833A00000000C9
:102160008096184B000048430000FA441C010024EC
:1021700048130024B838002410B50F4C0F4BD3ED92
:10218000000A0F4B93ED000A204604F0F3FDD4ED56
:10219000087ABCEEE77A0B4B83ED007AF5EEC07A55
:1021A000F1EE10FA05D4084B1B68064A12681A644F
:1021B00010BD00221A60F6E748130024180100241D
:1021C000C8130024D0130024B838002438B5624A5C
:1021D0006249634805F010F8624B1B78022B11D05E
:1021E000012B36D0604B1A68604BA3FB0213DB084F
:1021F00003EB8303B2EB430F5ED05B4A13680133FA
:10220000136038BD5A4AD2ED007A554B93ED000A5F
:1022100030EE670A83ED000AD2ED017AD3ED010AB0
:1022200070EEE70AC3ED010AD2ED027A93ED021ACD
:1022300031EE671A83ED021A484BD3ED022A93ED73
:10224000012AD3ED001A03F07FFE4A4B01221A70D7
:10225000C8E7434AD2ED006A454BD3ED007A76EEEB
:10226000A76AC3ED006A92ED017AD3ED017A37EEE9
:10227000277A83ED017AD2ED027A93ED026A77EE46
:10228000867AC3ED027A3C4A136801331360632BEC
:10229000A8D9374B9FED396AC6EE865AC3ED005A6E
:1022A000C7EE066AC3ED016A87EE867A83ED027A8D
:1022B0002C4B02221A7095E7FFF75EFF304C204648
:1022C00005F0B2FC204605F0DDF804462D4B186001
:1022D0002D4DB5F840002B8CC01AFEF783F902464D
:1022E0000B4600202949FEF711FBFEF7F7FB07EE2E
:1022F000100A274B1860288C231A07EE903AF8EE44
:10230000677A67EE877AB3EE0E7A77EE877A214B9B
:10231000C3ED007A104BD3ED007A1F4B93ED007A9A
:1023200077EEC77AF0EEE77AB7EE087AF4EEC77A7E
:10233000F1EE10FA7FF561AF0A4B1B78002B7FF4AA
:102340005CAF164A136801331360142B7FF655AF48
:10235000044B01221A7050E7C81300249013002484
:10236000B0130024A4130024AC130024CDCCCCCC97
:10237000BC13002444130024A81300240000C84206
:10238000941900249C13002400E8F11F000054401D
:10239000A01300244013002418010024CC130024AF
:1023A00070B5044602230022194604F079F8D4F8E7
:1023B0000061134D0FCD30607160B260F360D4F8EE
:1023C000F860104D0FCD30607160B260F360D4F8EA
:1023D00014610D4D0FCD30607160B260F360D4F8C0
:1023E00018610A4D0FCD30607160B260F360D4F8AF
:1023F0000C51074C0FCC28606960AA60EB6070BD7F
:102400002801002438010024480100245801002438
:1024100048CE010810B52DED028B044690ED158ACB
:1024200090ED0B0A14F0E2F828EE008AD4ED168A3B
:1024300094ED0B0A14F060F968EE808A38EE688A31
:1024400084ED208A94ED148A94ED0A0A14F0CEF8F3
:1024500028EE008AD4ED158A94ED0A0A14F04CF99E
:1024600068EE808A94ED0B0A14F046F968EE808AD3
:1024700038EE288AD4ED168A94ED0A0A14F03CF955
:1024800068EE808A94ED0B0A14F0B0F868EE808A4A
:1024900038EE288A84ED218A94ED148AB1EE488AB8
:1024A00094ED0A0A14F028F928EE008AD4ED158A72
:1024B00094ED0A0A14F09AF868EE808A94ED0B0AFB
:1024C00014F01AF968EE808A38EE288AD4ED168A5C
:1024D00094ED0B0A14F08AF868EE808A94ED0A0AEB
:1024E00014F084F868EE808A38EE288A84ED228A17
:1024F000BDEC028B10BD000010B504464368C3ED6F
:10250000000A436883ED010A04F09AFB002309E006
:10251000226802EB83021168044A02EB8302116015
:102520000133DBB2012BF3D910BD00BF0815002425
:10253000F8B52DED068B314F3846FFF76BFF304E67
:10254000D6ED038AD6ED0B7A78EEE78A9FED2DAAB9
:1025500068EE8A8AF6EE009A68EEA98A2A4D95ED11
:102560000A9A2A4CD4ED017A29EE279A94ED000AB2
:1025700014F03CF829EE009A78EE898A95ED119ACC
:1025800094ED000A14F0B8F829EE009A78EE898AE2
:1025900096ED038AD6ED0B7A38EE678A28EE0A8A22
:1025A00028EE298A95ED419AD4ED0D7A29EE279AE5
:1025B00094ED0C0A14F01AF829EE009A38EE098A04
:1025C00095ED489A94ED0C0A14F096F829EE009ACD
:1025D00038EE098A38EE888A68EE290A0C4BC3ED7A
:1025E000000A97ED200A0B48FFF786FF0A4B1B688D
:1025F000A361A364BDEC068BF8BD00BF14150024D5
:10260000B8150024B81E853D340E0024781100242E
:1026100010150024D4130024081500242DE9F041DE
:102620009AB0002412941394149401251595102344
:10263000169340F206231793234E12A9304607F053
:1026400095FD0094234602221146304607F0D2FD44
:102650002A462946304607F0E8FD0A940B940C946C
:102660000D954FF48078CDF838804FF4A0670F9720
:10267000164E0AA9304607F079FD0094234602223F
:102680001146304607F0B6FD2A462946304607F087
:10269000CCFD0294039404940595CDF81880079717
:1026A0000B4E02A9304607F061FD0094234602223A
:1026B0001146304607F09EFD2A462946304607F06F
:1026C000B4FD1AB0BDE8F081801A0024201B00245C
:1026D000C01B002470B5FFF7A1FF0E4E304607F077
:1026E000D3FD0D4D284607F0CFFD0C4C204607F0DA
:1026F000CBFD00220121304607F010FF002201210E
:10270000284607F00BFF00220121204607F006FFB4
:1027100070BD00BF801A0024201B0024C01B0024B1
:1027200000B58BB0019100210291039104930591B2
:10273000069107910891099101A907F0BFFD10B911
:102740000BB05DF804FB0120FAE7000090ED1D7A64
:10275000D0ED1E7A77EE677ADFED116AF4EEE67A55
:10276000F1EE10FA11D5036F01330367036F5B00BD
:1027700007EE903AF8EEE77ADFED0A6A67EEA67A9E
:1027800077EE277AC0ED1F7A7047DFED066AF4EE28
:10279000E67AF1EE10FAE9DD036F013B0367E5E746
:1027A000DB0F49C0DB0F494030B58BB005460C4606
:1027B0000B466A46402107F0BDFD002840F0F38239
:1027C000AC4B9D420AD0AC4B9D427CD0AB4B9D4262
:1027D00000F02E829DF80C000BB030BD039B082B3F
:1027E000F8D1009B332B5ED049D9442B63D040F203
:1027F00005229342EED1A24DB5F900302B8123780A
:10280000607840EA03202880A3781B021BB2E2789C
:1028100013436B8023791B021BB262791343AB8095
:10282000A379AB7100F02EFBDFED967A30EE670AEC
:1028300000F0B8FB944C84ED000A204600F07CFBCD
:10284000B5F9023007EE903AF8EEE77A9FED8F7A0D
:1028500067EE877AC4ED057AB5F9043007EE903A51
:10286000F8EEE77A9FED8A7A67EE877ADFED896A7C
:1028700087EEA67A84ED067A23686360AAE7112BB7
:1028800009D0222BA6D12146834813F083FB834B2A
:102890000122DA719EE72146814813F07BFB7F4BD2
:1028A00001229A7196E721467E4813F073FB7B4B19
:1028B00001221A728EE721467B4813F06BFB774B9F
:1028C00001225A7286E7009B40F20542934225D8C6
:1028D000B3F5806F12D9A3F20143042B3FF67AAF10
:1028E00001A252F823F000BFF72900084B2B000883
:1028F000D72B0008D52700085529000840F24112BF
:1029000093421FD0B3F5A17F7FF464AF674920469F
:1029100000F0CEFA614B0122DA705BE740F24342ED
:1029200093427FF457AF624D2946204600F056FB94
:10293000D5ED027A95ED017A77EEC77A5D4BC3ED5E
:10294000097A47E75C49204600F0B2FA534B01226E
:102950001A713FE7227802F00302584B197862F3AC
:10296000051119702178C1F30211187861F3430041
:102970001870A078A3F86400E0785D7860F304052F
:102980005D704009EDB260F347155D7024791878E9
:1029900064F300001870042907D8DFE801F0031081
:1029A00014181C00454B46499966022A1BD0032A7D
:1029B0001DD0012A13D0414B424ADA660AE73F4B49
:1029C00041499966F1E73D4B40499966EDE73B4B3C
:1029D0003F499966E9E7394B3E499966E5E7374B48
:1029E0003D4ADA66F6E6354B3C4ADA66F2E6334BA8
:1029F0003B4ADA66EEE6314B1B7813F0010302D056
:102A0000039A062A70D0002B7FF4E4AE039A082ABA
:102A10007FF4E0AE294D2146A81CFEF731FAB5F946
:102A2000023007EE903AF8EEE77A9FED2E7A67EEE5
:102A3000877AC5ED037AB5F9043007EE903AF8EEDF
:102A4000E77A67EE877AC5ED047AB5F9063007EEC6
:102A5000903AF8EEE77A67EE877AC5ED057AB5F930
:102A6000083007EE903AF8EEE77A67EE877AC5ED20
:102A7000067AAFE6801A0024201B0024C01B002425
:102A8000F81500243D0A0740E08200247077D63D07
:102A90002DB23D3FABAAAA4534A20024D482002423
:102AA00024A1002444A3002454A40024B815002425
:102AB00020160024F8100024D81500241415002432
:102AC00058A08B3A82849C3B58A00B3A58A08B3973
:102AD00058A00B3958A08B383333EB3A33336B3B68
:102AE0003333EB3B17B7D138B04D214605F11C000D
:102AF000FEF7C6F9B5F91C3007EE903AF8EEE77A22
:102B0000DFEDAB6A67EEA67AC5ED097AB5F91E303E
:102B100007EE103AB8EEC77A27EE267A85ED0A7AE4
:102B2000B5F9203007EE103AB8EEC77A27EE267ACC
:102B300085ED0B7A9F4B01229A70C5ED1D7A2846D0
:102B4000FFF704FE6B6FAB6744E6984B2068186391
:102B5000A2889A86B3F9302007EE102AD3ED1A6ABC
:102B6000B8EEC77A27EE267A83ED117AB3F93220D0
:102B700007EE102AB8EEC77A27EE267A83ED127A8E
:102B8000B3F9342007EE902AF8EEE77A67EEA67ADA
:102B9000C3ED137AE179A27942EA012207EE902A85
:102BA000F8EEE77ADFED846A87EEA67A83ED187A8D
:102BB000804B01221A70DFED817AB4EEE77AF1EEF4
:102BC00010FA7FF707AEDFED7E7A37EE677A774B44
:102BD00083ED187AFEE5754B2268C3F83620A2888B
:102BE0005A87B3F9362007EE102AD3ED1B6AB8EEE8
:102BF000C77A27EE267A83ED147AB3F9382007EEE8
:102C0000102AB8EEC77A27EE267A83ED157AB3F943
:102C10003A2007EE902AF8EEE77A67EEA67AC3ED3F
:102C2000167AE288A3F85C20624B01225A70D1E543
:102C3000009BA3F20123112B3FF6CCAD01A252F869
:102C400023F000BF8D2C0008D5270008D5270008E9
:102C5000D5270008D5270008152D0008D52700081E
:102C6000D5270008D5270008D5270008D527000854
:102C7000D5270008D5270008D5270008D527000844
:102C8000D5270008932D00089D2D00084D4DB5F95E
:102C900000302B812378607840EA03202880A378D5
:102CA0001B021BB2E27813436B8023791B021BB219
:102CB00062791343AB80A379AB7100F0E3F8424C27
:102CC00084ED000A204600F037F9D4ED036A9FED49
:102CD0003F7AC6EE877AC4ED047AB5F9023007EE82
:102CE000903AF8EEE77ADFED3A6A67EEA67AC7EE39
:102CF000876AC4ED056AB5F9043007EE903AF8EE3C
:102D0000E77A9FED347A67EE877AC4ED067A236816
:102D100063605FE5304DB5F90A306B8223786078E7
:102D200040EA03206881A3781B021BB2E2781343B8
:102D3000AB8123791B021BB262791343EB81A37928
:102D40002B7400F09FF8254C2046343080ED000AAB
:102D500000F0F2F8B5F90C3007EE903AF8EEE77AA9
:102D60009FED1B7A67EE877AC4ED127AB5F90E30C3
:102D700007EE903AF8EEE77A9FED197A67EE877AD8
:102D8000DFED186A87EEA67A84ED137A636BA3638E
:102D900020E52146144813F0FDF81BE521461348B1
:102DA00013F0F8F816E5002016E500BF141500240E
:102DB00017B7D138D48200240000C84200C07F4435
:102DC000000000450C16002470840024000010420E
:102DD0007077D63D62BE3C39F8150024E0820024AD
:102DE0002DB23D3FABAAAA4564A5002474A60024D9
:102DF00008B502490248FFF7D7FC08BDA01500241A
:102E0000801A002408B502490248FFF7CDFC08BD2E
:102E1000A8150024201B002408B502490248FFF72A
:102E2000C3FC08BDB0150024C01B002411F0010F25
:102E300014D010B504460A4B984206D0094B9C4268
:102E400006D0094B9C4206D010BDFFF7D1FFF5E735
:102E5000FFF7D8FFF5E7FFF7DFFFF5E7704700BFA3
:102E6000801A0024201B0024C01B00249FED047A3C
:102E7000C0EE077AFDEEE77A17EE903A18B2704787
:102E8000C2F5283B07EE900AF8EE677A77EEA77A4C
:102E90009FED057A67EE877ADFED046A87EEA60A72
:102EA00030EE470A704700BFDB0F494000F8FF458E
:102EB00003780B7090F901304B70C378827842EA46
:102EC000032212B24A8090F805C0037943EA0C232A
:102ED0001BB28B8090F807C0807940EA0C20C88034
:102EE00007EE900AF8EE677A9FED0F7A67EE877A21
:102EF0009FED0E7A77EEC77AC1ED047A07EE902A3D
:102F0000F8EEE77A9FED0A7A67EE877AC1ED027AEA
:102F100007EE903AF8EEE77A9FED067A67EE877A49
:102F2000C1ED037A704700BFA310C938DB0F4940D9
:102F3000C2F5283B295C8F3C90ED007AD0ED017AF8
:102F400077EE677ADFED156AF4EEE67AF1EE10FAC5
:102F500014D5D0ED027AF7EE006A77EEA67AC0EDCE
:102F6000027AD0ED027A77EEA77ADFED0D6A67EE8E
:102F7000A67A77EE277AC0ED037A7047DFED086A0C
:102F8000F4EEE67AF1EE10FAEBDDD0ED027AF7EE30
:102F9000006A77EEE67AC0ED027AE2E7DB0F49C01D
:102FA000DB0F494008B5DFED0B0ADFED0B7A30EEA1
:102FB000270A19F0ABFCB5EEC00AF1EE10FA04D402
:102FC000DFED057A30EE670A08BDDFED027A30EEFC
:102FD000270AF5E7DB0FC940DB0F49404278037849
:102FE00043EA022307EE903AC3781B021BB28278B1
:102FF000134390F805C0027942EA0C22F8EEE77A12
:103000009FED0D7AC7EE876AC1ED006A07EE903A30
:10301000F8EEE77AC7EE876AC1ED016A07EE902AFB
:10302000F8EEE77AC7EE876AC1ED026A83790B731F
:10303000C3794B73704700BF0000C84238B5D0F861
:103040008C30202B1CD10446002A18BF002901D146
:10305000012038BD8165A0F85C200025C0F89050A3
:10306000006813460A4600F12401D4F8800005F0F8
:103070009DFD2268936843F0400393602846E8E78B
:103080000220E6E708B5034913F0B8F9024B012224
:103090005A7108BD94A70024D4820024406880B2ED
:1030A00070470000264B984200D0704710B5044688
:1030B000D0F880301868FFF7F1FF122836D0D4F826
:1030C00080301B681F49204A934218BF8B4231D081
:1030D000183293422ED0183293422BD0183293429A
:1030E00028D01832934225D01832934222D0183279
:1030F00093421FD002F5567293421BD0183293426E
:1031000018D01832934215D01832934212D0183288
:1031100093420FD0183293420CD01832934209D008
:103120001832934206D024225A6005E00748FFF780
:10313000A9FFC4E724225A602423A4F85C3010BD00
:10314000D83F00241000024028000240001900244B
:103150000368DA6912F0100F00F0868010B504469B
:103160001A6812F0100F7ED010221A62D0F8803048
:103170001B683E493E4A934218BF8B422FD01832FB
:1031800093422CD01832934229D01832934226D041
:103190001832934223D01832934220D018329342EF
:1031A0001DD002F55672934219D01832934216D0B0
:1031B0001832934213D01832934210D018329342EF
:1031C0000DD0183293420AD01832934207D01832E9
:1031D000934204D01A6822F001021A6003E01A68D0
:1031E00022F001021A602046FFF75CFFD4F880301D
:1031F0001B681E491E4A934218BF8B422FD01832BB
:1032000093422CD01832934229D01832934226D0C0
:103210001832934223D01832934220D0183293426E
:103220001DD002F55672934219D01832934216D02F
:103230001832934213D01832934210D0183293426E
:103240000DD0183293420AD01832934207D0183268
:10325000934204D01A6842F001021A6003E01A682F
:1032600042F001021A6010BD704700BF100002401A
:103270002800024008B5084B834200D008BD18461C
:103280001B6810221A621A6842F010021A60242287
:103290000249FFF7D3FEF1E7D83F002400190024CC
:1032A00010B51248FFF7E6FF1148036810241C62AE
:1032B0001A6822431A6064220E490DF08FF80E48F6
:1032C00003681C621A6822431A604FF4FA720B49B1
:1032D0000DF084F80A4803681C621A6822431A60D9
:1032E000642208490DF07AF810BD00BFD83F0024D1
:1032F000883D0024401600246C4000240817002458
:103300001C3E0024A4160024132900D0704708B5E1
:103310000378A52B00D008BD837C5A2BFBD1CA1E95
:10332000411C0248FDF7ACFDF5E700BF3016002454
:10333000B1F5E67F38D3F8B5044603787B2B00D08F
:10334000F8BD431813F8023C0D2BF9D1014411F8D4
:10335000013C0A2BF4D100252E460FE00130771CEA
:10336000BFB2204414F0DEFA104B03EB860686ED64
:10337000000A0635ADB23E460135ADB22F2E0AD851
:103380002846635D7B2BE9D02C2BF5D163195B7844
:103390000A2BE3D1F0E7302ED2D1054B01221A607F
:1033A000044B05221A70CBE7704700BF341000248D
:1033B000F41000244882002410B58CB00024099435
:1033C0000A940B9424222146684614F0D9FA27481F
:1033D000274B03604FF4E01343600823836001230D
:1033E000036104224261047643760222C26180F8BE
:1033F00020408462C46203220263C463046480F8D0
:103400004440836404F032FD20BB0023099309A9E2
:10341000164804F09BFE00BB164B00930623019355
:103420000423029340F2FF72039204930023059356
:103430008DF8213069460D4804F028F880B90E4B0C
:1034400000930C2301936946084804F01FF850B913
:103450000CB010BD00F016FDD7E700F013FDDBE760
:1034600000F010FDEBE700F00DFDF1E7241900245A
:10347000002002401000C0100000B84F00B58BB013
:103480002422002101A814F07BFA1D481D4B036083
:103490000023436008228260C3600361042242610A
:1034A000037643760122C26180F820308362C362D2
:1034B00080F8383043630363C363036480F84430A7
:1034C000836404F0D3FCA8B90F4B01930623029345
:1034D0000023039340F2FF720492042205920693A4
:1034E00008930DEB0201064803F0D0FF28B90BB09A
:1034F0005DF804FB00F0C6FCE6E700F0C3FCF6E76D
:103500009419002400600258000052C730B58BB0F7
:103510000023059306930793089309930368364A9B
:10352000934204D0354A934257D00BB030BD044685
:10353000334BD3F8D82042F02002C3F8D820D3F878
:10354000D82002F020020192019AD3F8E02042F044
:103550000102C3F8E020D3F8E02002F00102029259
:10356000029AD3F8E02042F00402C3F8E020D3F836
:10357000E03003F004030393039B2023059303250A
:10358000069505A91F4807F0AFF910230593069586
:103590000025079505A91C4807F0A6F91B481C4BF8
:1035A0000360092343608560C5604FF48063036155
:1035B0004FF4006343614FF4005383614FF4807311
:1035C000C3610562456205F027F918B90F4BA36581
:1035D0009C63AAE700F056FCF8E7094BD3F8E0201B
:1035E00042F08072C3F8E020D3F8E03003F080733B
:1035F0000493049B99E700BF00200240006002583A
:10360000004402580000025800080258041A00241E
:103610005800024000B583B0394BD3F8D82042F0AF
:103620000102C3F8D820D3F8D82002F0010200929A
:10363000009AD3F8D82042F00202C3F8D820D3F879
:10364000D83003F002030193019B002205210B20D7
:1036500004F040FE0B2004F073FE002205210C2034
:1036600004F038FE0C2004F06BFE002205210D2032
:1036700004F030FE0D2004F063FE002205210E2030
:1036800004F028FE0E2004F05BFE002205210F202E
:1036900004F020FE0F2004F053FE0022052110202C
:1036A00004F018FE102004F04BFE0022052111202A
:1036B00004F010FE112004F043FE002205212F200B
:1036C00004F008FE2F2004F03BFE002205213820E4
:1036D00004F000FE382004F033FE002205213920DA
:1036E00004F0F8FD392004F02BFE002205213A20D9
:1036F00004F0F0FD3A2004F023FE03B05DF804FB73
:103700000044025808B51548154B03600023836038
:10371000C360012202744374827418214161826182
:103720000221C161016242628262C262026343633A
:103730008263C36320210164042242648364C264FF
:10374000036542658365C36501664366826606F06C
:10375000C3FB00B908BD00F095FBFBE7801A00240D
:1037600000A0004008B51648164B03600023836094
:10377000C360012202744374827418214161826122
:103780000221C161016242628262C262026340F24E
:10379000064141638263C3632021016404224264C1
:1037A0008364C264036542658365C36501664366DD
:1037B000826606F091FB00B908BD00F063FBFBE7F1
:1037C000201B002400A4004008B51648164B0360D7
:1037D00000238360C3600122027443748274182141
:1037E000416182610221C161016242628262C26200
:1037F000026340F6120141638263C36320210164C6
:10380000042242648364C264036542658365C365C0
:1038100001664366826606F05FFB00B908BD00F0F2
:1038200031FBFBE7C01B002400D4004030B5BBB027
:103830000446002135913691379138913991B8225B
:1038400006A814F09DF82368854A934208D0854A5B
:1038500093425CD0844A934200F0B1803BB030BDCB
:103860004FF400420023CDE906234FF0805321930B
:1038700006A808F0F1FE002838D17C4A136801330D
:103880001360012B35D07A4BD3F8E02042F00802C8
:10389000C3F8E020D3F8E03003F008030193019B64
:1038A0000323359302223692002437943893092358
:1038B000399335A96F4807F017F8224605211320E0
:1038C00004F008FD132004F03BFD224605211520DD
:1038D00004F000FD152004F033FD224605213F20B1
:1038E00004F0F8FC3F2004F02BFDB7E700F0CAFA23
:1038F000C3E75F4BD3F8EC2042F48072C3F8EC20AE
:10390000D3F8EC3003F480730093009BBBE74FF4D3
:1039100000420023CDE906234FF08053219306A8EF
:1039200008F09AFE002839D1504A13680133136019
:10393000012B36D04E4BD3F8E02042F00202C3F800
:10394000E020D3F8E03003F002030393039B6023ED
:1039500035930223369300243794032338930923A5
:10396000399335A9444806F0BFFF224605211420AB
:1039700004F0B0FC142004F0E3FC224605211620DC
:1039800004F0A8FC162004F0DBFC224605213F20B1
:1039900004F0A0FC3F2004F0D3FC5FE700F072FAD3
:1039A000C2E7334BD3F8EC2042F48072C3F8EC202A
:1039B000D3F8EC3003F480730293029BBAE74FF420
:1039C00000420023CDE906234FF08053219306A83F
:1039D00008F042FE90BB254A136801331360012BA7
:1039E0002FD0234BD3F8E02042F00802C3F8E020A8
:1039F000D3F8E03003F008030593059B4FF44053E0
:103A000035930223369300253795032338930524F5
:103A1000399435A9174806F067FF2A4621469F20AA
:103A200004F058FC9F2004F08BFC2A462146A0207D
:103A300004F050FCA02004F083FC0FE700F022FA11
:103A4000C9E70B4BD3F8EC2042F48072C3F8EC20AA
:103A5000D3F8EC3003F480730493049BC1E700BFF8
:103A600000A0004000A4004000D400407C1A0024C4
:103A700000440258000C02580004025808B511F026
:103A80009DFF12F079FD0A200EF005FCF9E708B55C
:103A9000FEF740FBFEF79AFB01200EF0FCFBF9E776
:103AA000034B0360034B0B6080231360704700BF20
:103AB0003C3100243C2F0024034B0360034B0B607C
:103AC0004FF48073136070479835002498310024B8
:103AD00010B5C0B0504C0DF1E40CA646BEE80F0086
:103AE000ACE80F009EE807008CE80700002139A829
:103AF0000EF09CFB494B18600DF1C80C04F11C0E34
:103B0000BEE80F00ACE80F009EE807008CE8070055
:103B1000002132A80EF08AFB414B18600DF1AC0C6D
:103B200004F1380EBEE80F00ACE80F009EE8070075
:103B30008CE8070000212BA80EF078FB394B1860A9
:103B40000DF1900C04F1540EBEE80F00ACE80F002C
:103B50009EE807008CE80700002124A80EF066FB11
:103B6000314B18600DF1740C04F1700EBEE80F00BB
:103B7000ACE80F009EE807008CE8070000211DA8B4
:103B80000EF054FB294B18600DF1580C04F18C0E0B
:103B9000BEE80F00ACE80F009EE807008CE80700C5
:103BA000002116A80EF042FB214B18600DF13C0CD1
:103BB00004F1A80EBEE80F00ACE80F009EE8070075
:103BC0008CE8070000210FA80EF030FB194B18609D
:103BD0000DF1200C04F1C40EBEE80F00ACE80F009C
:103BE0009EE807008CE80700002108A80EF01EFBE5
:103BF000114B18600DF1040CE0340FCCACE80F0051
:103C000094E807008CE80700002101A80EF00EFBE5
:103C10000A4B186040B010BDF8CC0108382F0024C2
:103C2000282F0024BC1E0024C01E0024C41E002413
:103C30002C2F0024302F0024C81E0024342F0024F1
:103C40002DE9F0478CB000240794089409940A9455
:103C50000B946A4BD3F8E02042F01002C3F8E02046
:103C6000D3F8E02002F010020192019AD3F8E0208C
:103C700042F00402C3F8E020D3F8E02002F004028E
:103C80000292029AD3F8E02042F08002C3F8E020CA
:103C9000D3F8E02002F080020392039AD3F8E020E8
:103CA00042F00102C3F8E020D3F8E02002F0010264
:103CB0000492049AD3F8E02042F00202C3F8E02014
:103CC000D3F8E02002F002020592059AD3F8E02032
:103CD00042F00802C3F8E020D3F8E03003F0080314
:103CE0000693069BDFF8208101224AF22901404613
:103CF00006F004FF22464FF48041404606F0FEFEE7
:103D0000DFF8089122464FF40041484606F0F6FEDF
:103D10003B4F22464FF44061384606F0EFFE012249
:103D20004FF48051384606F0E9FEDFF8E4A0224661
:103D30004FF48061504606F0E1FE4FF46043079374
:103D40000125089509940A9407A9404606F0CCFD80
:103D5000292307930895099403260A9607A9404644
:103D600006F0C2FD4FF4A05307934FF48813089355
:103D7000099407A9484606F0B7FD4FF40048CDF86E
:103D80001C80089509940A9607A9484606F0ACFDE0
:103D90004FF440630793089509940A9607A938469B
:103DA00006F0A2FD4FF480530793089509950A96F3
:103DB00007A9384606F098FD4FF4806307930895ED
:103DC00009940A9607A9504606F08EFD4FF48073B9
:103DD00007930223089309940A940B94094D07A9A9
:103DE000284606F081FDCDF81C800894099407A9A7
:103DF000284606F079FD0CB0BDE8F0870044025873
:103E0000000402580000025800080258001002582E
:103E1000000C025810B584B0002400940194029460
:103E2000039404F09BFA01238DF800308DF80140D3
:103E30004FF01052019212228DF808208DF809409F
:103E40008DF80A4003228DF80B208DF80C408DF878
:103E50000D308DF80E308DF80F30684604F09CFA66
:103E6000062004F089FA04B010BD000008B502680D
:103E7000034B9A4200D008BD03F0DEFAFBE700BF17
:103E800000E0004072B6FEE700B59DB04C22002174
:103E900009A813F075FD2022002101A813F070FD80
:103EA000022007F09FFC00230093264B9A6922F41E
:103EB00040429A619B6903F440430093009B214B6D
:103EC0009B6913F4005FFAD0232309934FF48033E6
:103ED0000A9301220C9240230D930F920223129316
:103EE0001393149328211591169204221792189374
:103EF0000C23199300231A931B9309A807F0A4FC21
:103F0000D8B93F230193032102910023039308238F
:103F100004934023059306934FF48062079208931D
:103F200001A808F0D3F850B94FF4802200210846C8
:103F300007F080FF1DB05DF804FBFFF7A3FFFFF75C
:103F4000A1FF00BF0048025800B5AFB0B822002161
:103F5000684613F015FD4FF400220023CDE900233D
:103F60000223029310220392049305930693C02325
:103F70000793684608F070FB10B92FB05DF804FB9A
:103F8000FFF780FF10B5FFF745FF654B5B6913F442
:103F9000003F13D1BFF34F8FBFF36F8F604B0022F1
:103FA000C3F85022BFF34F8FBFF36F8F5A6942F4AB
:103FB00000325A61BFF34F8FBFF36F8F584B5B696D
:103FC00013F4803F27D1564B0022C3F88420BFF35F
:103FD0004F8FD3F88040C4F34E3000E01846C4F34E
:103FE000C90243F6E07303EA401343EA82734C4983
:103FF000C1F860321346013A002BF2D1431E00286B
:10400000ECD1BFF34F8F4B6943F480334B61BFF367
:104010004F8FBFF36F8F03F0E1F9FFF735FFFFF725
:1040200093FFFFF70DFEFFF7F5FAFFF7C5F900F074
:10403000B3F800F081FE00F08BFF00F0BDFF00F050
:10404000F1FF00F051FF01F023F8FFF75BFBFFF7F2
:1040500089FBFFF7B9FB00F0C5FC00F021FEFFF77C
:104060000DFA00F0ADFE00F003FF00F065F800F07F
:10407000F5FCFEF72FFBFFF713F94FF4F07003F098
:1040800079F902E00A2003F0E9F9264B5B78002B6E
:10409000F8D0244B1B78002BF4D0224B9B78002BBC
:1040A000F0D000240BE008231F4A4FF420711F4872
:1040B000FEF736FB022003F0D1F90134E4B2042C00
:1040C000F1D902E00A2003F0C9F9164BDB78002B86
:1040D000F8D0144B1B79002BF4D011F0ADFE12F088
:1040E0000BF802E0012003F0B9F9114B9B68012B9A
:1040F000F8D10F4BD3F81831012BF3D10C4BD3F877
:104100002832012BEED10A4BD3F83833012BE9D1F9
:1041100008480AF003FCFFF7DBFC0EF082F8FEE72C
:1041200000ED00E0D4820024F4350024201B00249C
:1041300024A100240439002408B51548154B036058
:104140004FF4800343604FF4003383600723C36060
:104150004FF000730361002343614FF0806282617E
:10416000C361036243628362C3624FF08042426371
:104170008363C363036443648364C3640365436507
:10418000836509F009FE00B908BDFFF77BFEFBE778
:10419000743600240030014008B51548154B036003
:1041A0004FF480034360002383600722C2604FF016
:1041B000007202614FF0807242614FF08062826152
:1041C0004FF08042C261036243628362C362426312
:1041D0008363C363036443648364C36403654365A7
:1041E000836509F0D9FD00B908BDFFF74BFEFBE779
:1041F000FC360024003800402DE9F041BAB00446F6
:10420000002135913691379138913991B82206A81D
:1042100013F0B6FB2368624A934205D0614A934289
:1042200071D03AB0BDE8F0814FF480520023CDE95F
:10423000062306A808F010FA00285ED15A4BD3F8DE
:10424000F02042F48052C3F8F020D3F8F02002F4BA
:1042500080520092009AD3F8E02042F00802C3F89E
:10426000E020D3F8E02002F008020192019AD3F88E
:10427000E02042F00202C3F8E020D3F8E03003F07F
:1042800002030293029B802335934FF00208CDF87E
:10429000D88000253795032738970526399635A904
:1042A000424806F021FB08233593CDF8D880379596
:1042B0003897399635A93E4806F016FB3D483E4BE7
:1042C00003602623436040238360C5604FF480630E
:1042D000036145618561C5610562456204F09CFA30
:1042E00070B9344BA3679C6300220521232003F09F
:1042F000F1FF232004F024F893E7FFF7C3FD9DE7C7
:10430000FFF7C0FDEDE74FF480520023CDE906230F
:1043100006A808F0A1F900283ED1234BD3F8E820E5
:1043200042F48042C3F8E820D3F8E82002F4804247
:104330000392039AD3F8E02042F00402C3F8E0208D
:10434000D3F8E02002F004020492049AD3F8E020AB
:1043500042F00202C3F8E020D3F8E03003F0020399
:104360000593059B0623359302273697002637963B
:10437000032538950524399435A9104806F0B4FA78
:104380004FF400533593369737963895399435A9BD
:10439000074806F0A9FA44E7FFF774FDBDE700BF40
:1043A000003001400038004000440258000C025820
:1043B00000040258FC35002428040240000802587A
:1043C00000B583B00A4BD3F8F42042F00202C3F8E0
:1043D000F420D3F8F43003F002030193019B002290
:1043E0000F216FF0010003F075FF03B05DF804FBCF
:1043F000004402580F2801D90120704710B58AB037
:10440000044600220146A12003F064FFA12003F02E
:1044100097FF174B1C60174BD3F8EC2042F08072CB
:10442000C3F8EC20D3F8EC3003F080730093009BCA
:1044300001A902A807F0DAFF07F0C6FF43000E4803
:10444000A0FB03239B0C013B0C480D4A026040F289
:10445000E732C26043600023036183600AF008FC16
:1044600010B101200AB010BD04480AF057FAF9E76C
:104470000C0200240044025883DE1B4384370024CE
:1044800000E00040FEE7FEE7FEE7FEE7FEE77047DC
:1044900008B5024805F052F808BD00BF50390024A5
:1044A00008B5024805F04AF808BD00BFA83B002443
:1044B00008B5024805F042F808BD00BF203C0024C2
:1044C00008B5024805F03AF808BD00BF041A0024F8
:1044D00008B5024805F032F808BD00BF983C00243A
:1044E00008B5024805F02AF808BD00BF103D0024B9
:1044F00008B5024805F022F808BD00BFC8390024FD
:1045000008B5024806F062F808BD00BF801A002412
:1045100008B5024806F05AF808BD00BF201B002469
:1045200008B5024806F052F808BD00BF801A002402
:1045300008B5024806F04AF808BD00BF201B002459
:1045400008B5024809F04CFF08BD00BF74360024CE
:1045500010B52B4C20460BF005F82368DA6912F0F1
:10456000100F00D110BD10221A6220460AF02AFF57
:10457000244B1B682449254A934218BF8B422DD0F7
:10458000183293422AD01832934227D018329342DD
:1045900024D01832934221D0183293421ED01832C0
:1045A00093421BD002F55672934217D018329342B1
:1045B00014D01832934211D0183293420ED01832D0
:1045C00093420BD01832934208D01832934205D050
:1045D0001832934202D05968C9B201E05968C9B291
:1045E000C1F16401C9B20A4B19700A4C2046FEF7AA
:1045F0008BFE6422214602480BF0F0FEB2E700BFBA
:10460000883D0024A83B00241000024028000240FE
:10461000FC1800244016002408B502480AF0A2FF46
:1046200008BD00BFB03E002408B502480AF09AFF5A
:1046300008BD00BF443F002408B5024804F07EFFD7
:1046400008BD00BF403A002410B5044C20460AF0D3
:1046500089FF2046FEF77CFD10BD00BFD83F002437
:1046600008B5024804F06AFF08BD00BFB83A00244C
:1046700008B5024804F062FF08BD00BFFC35002405
:1046800008B5024804F05AFF08BD00BF303B0024C3
:1046900008B5034805F09AFF024805F097FF08BDEA
:1046A000801A0024201B002408B5024806F05BFD98
:1046B00008BD00BF209A002410B52F4C20460AF0F8
:1046C00051FF2368DA6912F0100F00D110BD1022DB
:1046D0001A6220460AF076FE284B1B682849294AB0
:1046E000934218BF8B422DD0183293422AD01832F1
:1046F000934227D01832934224D01832934221D0CB
:10470000183293421ED0183293421BD002F55672D3
:10471000934217D01832934214D01832934211D0DA
:10472000183293420ED0183293420BD01832934273
:1047300008D01832934205D01832934202D05B68F9
:104740009BB201E05B689BB2C3F5FA7399B20E4B62
:1047500019800E48FEF7ECFD002303E00B4A002110
:10476000D1540133B3F5FA7FF8DB4FF4FA720749FD
:1047700001480BF033FEA9E76C400024C83900243F
:104780001000024028000240FE18002408170024F0
:1047900010B5284C20460AF0E5FE2368DA6912F0CD
:1047A000100F00D110BD10221A6220460AF00AFE36
:1047B000214B1B682149224A934218BF8B422DD0BE
:1047C000183293422AD01832934227D0183293429B
:1047D00024D01832934221D0183293421ED018327E
:1047E00093421BD002F55672934217D0183293426F
:1047F00014D01832934211D0183293420ED018328E
:1048000093420BD01832934208D01832934205D00D
:104810001832934202D05B68DBB201E05B68DBB226
:10482000C3F16403074A13706422074901480BF07F
:10483000D5FDB7E71C3E0024B83A00241000024022
:1048400028000240FD180024A416002408B50248E0
:1048500005F0BCFE08BD00BFC01B002408B502481F
:1048600005F0B4FE08BD00BFC01B002408B5024817
:104870000AF0A8F808BD00BF843700240120704763
:1048800008B513F053F8162303604FF0FF3008BD4E
:1048900008B54FF0FF31FFF7F3FFFEE770B50C46A8
:1048A0001646002506E0AFF30080214601F8010B13
:1048B00001350C46B542F6DB304670BD70B50C468E
:1048C0001646002504E014F8010BAFF30080013513
:1048D000B542F8DB304670BD4FF0FF3070474FF403
:1048E00000534B6000207047012070470020704744
:1048F00010B503460C4A0D490D48006840B10C48FC
:1049000000680344521A934206D8094A136010BD46
:104910000748084C0460F2E713F008F80C23036022
:104920004FF0FF30F3E700BF000005240020000037
:10493000D0370024F8AB0024224AD2F8883043F460
:104940007003C2F88830204B1B6803F00F03062B5E
:1049500006D81D4A136823F00F0343F007031360C2
:104960001A4B1A6842F001021A6000221A61196893
:10497000174A0A401A60144B1B6813F0080F06D040
:10498000114A136823F00F0343F0070313600F4B22
:1049900000229A61DA611A620E4999620E49D9625F
:1049A0000E4919635A639963DA6319645A64196882
:1049B00021F4802119601A66094B43F2D2021A6071
:1049C000704700BF00ED00E0002000520044025894
:1049D0007FEDF6EA000202020000FF018002010101
:1049E0000040005200B589B000230493059306935C
:1049F00007930193029303931648174A02604FF4FA
:104A000016624260836042F21072C26003614361C9
:104A100083610AF02DF998B94FF48053049304A9E7
:104A20000C480AF079FA70B90023019302930393BA
:104A300001A908480AF0D8FB40B909B05DF804FBA9
:104A4000FFF720FAE8E7FFF71DFAEDE7FFF71AFA9C
:104A5000F3E700BFD43700240000014000B585B063
:104A600000230193029303930F48104A0260EF2240
:104A70004260836040F2E733C360802383610AF0C1
:104A8000F7F850B900230193039301A906480AF0EF
:104A9000ABFB28B905B05DF804FBFFF7F3F9F1E7CC
:104AA000FFF7F0F9F6E700BF0439002400100040DA
:104AB00000B58BB0002305930693079308930993E1
:104AC00003682A4A934208D0294A93422AD0294AA5
:104AD00093423DD00BB05DF804FB274BD3F8F02098
:104AE00042F00102C3F8F020D3F8F02002F00102F6
:104AF0000192019AD3F8E02042F01002C3F8E020BE
:104B0000D3F8E03003F010030293029B4FF40073DC
:104B10000593022306930123099305A9174805F07D
:104B2000E3FED7E7144BD3F8E82042F01002C3F8B5
:104B3000E820D3F8E83003F010030393039B00222E
:104B40000521362003F0C6FB362003F0F9FBC1E750
:104B5000094BD3F8E82042F04002C3F8E820D3F82C
:104B6000E83003F040030493049BB3E700000140E6
:104B70000010004000180040004402580010025885
:104B800082B00368B3F1804F04D0104A93420FD033
:104B900002B070470E4BD3F8E82042F00102C3F890
:104BA000E820D3F8E83003F001030093009BEFE71F
:104BB000074BD3F8E82042F00202C3F8E820D3F80C
:104BC000E83003F002030193019BE1E70004004099
:104BD0000044025800B589B0002303930493059361
:104BE000069307930368B3F1804F08D0274A934296
:104BF0001DD0274A934230D009B05DF804FB254B05
:104C0000D3F8E02042F00102C3F8E020D3F8E0300E
:104C100003F001030093009B0523039302230493F5
:104C20000123079303A91C4805F05EFEE4E7194B36
:104C3000D3F8E02042F00202C3F8E020D3F8E030DD
:104C400003F002030193019B022303930493079350
:104C500003A9124805F048FECEE70E4BD3F8E0203A
:104C600042F00202C3F8E020D3F8E03003F0020380
:104C70000293029B4FF40043039302230493079390
:104C800003A9064805F030FEB6E700BF0004004067
:104C90000018004000440258000002580004025866
:104CA00000B58BB0002307930893099300930193F9
:104CB000029303930493059306931E484FF080429A
:104CC000026018224260836042F21072C260036187
:104CD000836109F0FDFF00BB00230793099307A937
:104CE00014480AF081FAD8B96023009341F288335E
:104CF000019300220292049269460E480AF062F87B
:104D000088B9082269460B480AF05CF870B909486E
:104D1000FFF760FF0BB05DF804FBFFF7B3F8DBE7CC
:104D2000FFF7B0F8E0E7FFF7ADF8EAE7FFF7AAF81A
:104D3000EDE700BF6C38002400B58BB0002307936B
:104D400008930993009301930293039304930593AB
:104D500006931948194A026017224260836042F2A2
:104D60000F72C26003618023836109F0B1FFC8B98B
:104D700000230793099307A90F480AF035FAA0B951
:104D80006023009300230193029304930C2269464D
:104D900009480AF017F858B90748FFF71BFF0BB08E
:104DA0005DF804FBFFF76EF8E2E7FFF76BF8E7E763
:104DB000FFF768F8F0E700BFB838002400040040AF
:104DC00000B58FB000230A930B930C930D930793B8
:104DD000089309930093019302930393049305931B
:104DE00006932148214A026017224260836040F204
:104DF000CF72C2600361836109F03AFF28BB4FF4B0
:104E000080530A930AA918480AF086F800BB16488E
:104E100009F05EFFF8B900230793099307A9124828
:104E20000AF0E2F9D0B960230093002301930293C2
:104E30000493042269460C4809F0C4FF88B90A4863
:104E4000FFF7C8FE0FB05DF804FBFFF71BF8D6E7CD
:104E5000FFF718F8DBE7FFF715F8DCE7FFF712F8C4
:104E6000E1E7FFF70FF8EAE72038002400180040D8
:104E700008B51A481A4B03601A4B43604FF480532D
:104E800083604FF40053C3604FF4806303610C23CD
:104E9000436100238361C3610362436283620BF059
:104EA00012FA70B900210D480BF04AFB60B90021DD
:104EB0000A480BF06AFB50B908480BF022FB48B9CE
:104EC00008BDFEF7DFFFEDE7FEF7DCFFEFE7FEF7DB
:104ED000D9FFF1E7FEF7D6FFF2E700BFD83F002485
:104EE00000500040A086010008B51748174B03602A
:104EF0004FF4E133436000238360C36003610C22FD
:104F000042618361C3610362436283620BF0DBF938
:104F100070B900210C480BF013FB60B900210A485E
:104F20000BF033FB50B908480BF0EBFA48B908BD59
:104F3000FEF7A8FFEDE7FEF7A5FFEFE7FEF7A2FFFC
:104F4000F1E7FEF79FFFF2E76C4000240078004095
:104F500008B51748174B03604FF4E1334360002353
:104F60008360C36003610C2242618361C361036299
:104F7000436283620BF0A7F970B900210C480BF073
:104F8000DFFA60B900210A480BF0FFFA50B908486F
:104F90000BF0B7FA48B908BDFEF774FFEDE7FEF76E
:104FA00071FFEFE7FEF76EFFF1E7FEF76BFFF2E749
:104FB000883D00240010014008B51848184B0360D4
:104FC0004FF46123436000218160C16001610C23C3
:104FD00043618161C1610162416281620B460A469F
:104FE0000BF048FA70B900210C480BF0A9FA60B92F
:104FF00000210A480BF0C9FA50B908480BF081FAB1
:1050000048B908BDFEF73EFFEDE7FEF73BFFEFE7CF
:10501000FEF738FFF1E7FEF735FFF2E7B03E002478
:105020000044004008B51848184B03604FF4612352
:10503000436000218160C16001610C234361816193
:10504000C1610162416281620B460A460BF012FAAD
:1050500070B900210C480BF073FA60B900210A48BE
:105060000BF093FA50B908480BF04BFA48B908BD59
:10507000FEF708FFEDE7FEF705FFEFE7FEF702FF9B
:10508000F1E7FEF7FFFEF2E7443F0024004800404E
:1050900008B51748174B03604FF4E1334360002312
:1050A0008360C36003610C2242618361C361036258
:1050B000436283620BF007F970B900210C480BF0D2
:1050C0003FFA60B900210A480BF05FFA50B908486E
:1050D0000BF017FA48B908BDFEF7D4FEEDE7FEF76E
:1050E000D1FEEFE7FEF7CEFEF1E7FEF7CBFEF2E7EB
:1050F0001C3E0024001C0140F0B5C3B00446002152
:105100003D913E913F9140914191B8220EA812F0FD
:1051100037FC2368794A934214D0794A93427ED06F
:10512000784A934200F00A81774A934200F07581F1
:10513000764A934200F0AB81754A934200F0468272
:1051400043B0F0BD02220023CDE90E230EA807F0E4
:1051500083FA00285DD16F4BD3F8E82042F4801227
:10516000C3F8E820D3F8E82002F480120092009AF5
:10517000D3F8E02042F00402C3F8E020D3F8E020A6
:1051800002F004020192019AD3F8E02042F00802F2
:10519000C3F8E020D3F8E03003F008030293029B49
:1051A0004FF480533D9302273E9700253F9540954D
:1051B000082641963DA9584805F096FB04233D93E7
:1051C0003E973F95409541963DA9544805F08CFB8C
:1051D0005348544B0360412343608560C5604FF4DE
:1051E00080630361456185614FF48073C36105622B
:1051F000456203F011FB78B9494BC4F880309C63D9
:1052000000220521352003F065F8352003F098F8D9
:1052100096E7FEF737FE9EE7FEF734FEECE7022244
:105220000023CDE90E230EA807F016FA00285CD162
:10523000384BD3F8E82042F08042C3F8E820D3F896
:10524000E82002F080420392039AD3F8E02042F073
:105250001002C3F8E020D3F8E03003F01003049309
:10526000049B4FF4C0733D9302233E9300253F956A
:105270004095072341933DA92B4805F035FB2B486A
:105280002B4B03604F2343608560C5604FF4806300
:10529000036145618561C5610562456203F0BCFA41
:1052A00030BB224BC4F880309C632248224B036001
:1052B00050234360402383600023C3604FF4806227
:1052C000026143618361C3610362436203F0A4FA34
:1052D00088B9184BE3679C6300220521522002F035
:1052E000F9FF522003F02CF82AE7FEF7CBFD9FE7E9
:1052F000FEF7C8FDD5E7FEF7C5FDEAE70050004020
:105300000078004000100140004400400048004088
:10531000001C01400044025800080258000C0258CA
:10532000503900241000024000100258C8390024EF
:10533000A0000240403A0024B800024001220023AD
:10534000CDE90E230EA807F087F900285CD1934B16
:10535000D3F8F02042F01002C3F8F020D3F8F02088
:1053600002F010020592059AD3F8E02042F0010203
:10537000C3F8E020D3F8E03003F001030693069B66
:105380004FF4C0633D9302233E9300253F95409523
:10539000072341933DA9824805F0A6FA8148824B34
:1053A0000360292343608560C5604FF48063036117
:1053B00045618561C5610562456203F02DFA30BB28
:1053C000784BC4F880309C637848794B03602A237B
:1053D0004360402383600023C3604FF48062026116
:1053E00043618361C3610362436203F015FA88B9C4
:1053F0006E4BE3679C6300220521252002F06AFFC3
:10540000252002F09DFF9BE6FEF73CFD9FE7FEF79F
:1054100039FDD5E7FEF736FDEAE702220023CDE9A4
:105420000E230EA807F018F970BB5C4BD3F8E820E8
:1054300042F40032C3F8E820D3F8E82002F4003246
:105440000792079AD3F8E02042F00802C3F8E02060
:10545000D3F8E03003F008030893089B70233D93D2
:1054600002233E9300243F944094072341933DA997
:10547000504805F039FA22460521262002F02AFF7D
:10548000262002F05DFF5BE6FEF7FCFCCDE7022282
:105490000023CDE90E230EA807F0DEF8002873D113
:1054A0003E4BD3F8E82042F48022C3F8E820D3F83A
:1054B000E82002F480220992099AD3F8E02042F011
:1054C0000202C3F8E020D3F8E02002F002020A92C0
:1054D0000A9AD3F8E02042F00802C3F8E020D3F89B
:1054E000E03003F008030B930B9B4FF480433D9394
:1054F00002273E9700253F954095072641963DA9F6
:105500002D4805F0F1F94FF440733D933E973F95D8
:10551000409541963DA9274805F0E6F92748284BD4
:1055200003602D2343608560C5604FF48063036191
:1055300045618561C5610562456203F06DF930BB67
:105540001E4BC4F880309C631E481F4B03602E2303
:105550004360402383600023C3604FF48062026194
:1055600043618361C3610362436203F055F988B903
:10557000144BE3679C6300220521272002F0AAFE5A
:10558000272002F0DDFEDBE5FEF77CFC88E7FEF776
:1055900079FCD5E7FEF776FCEAE700BF0044025845
:1055A00000000258A83B002428000240203C0024B0
:1055B00040000240000C025800040258983C0024AD
:1055C00070000240103D00248800024001220023A8
:1055D000CDE90E230EA807F03FF8002866D1384B1E
:1055E000D3F8F02042F08002C3F8F020D3F8F02086
:1055F00002F080020C920C9AD3F8E02042F01002E4
:10560000C3F8E020D3F8E03003F010030D930D9BB6
:1056100004233D9302273E9700253F9540954193F3
:10562000284E3DA9304605F05FF908233D933E978B
:105630003F9540950B2341933DA9304605F054F921
:105640002148224B0360762343608560C5604FF498
:105650008063036145618561C5610562456203F050
:10566000DBF830BB184BC4F880309C631848194BEA
:10567000036077234360402383600023C3604FF4BB
:105680008062026143618361C3610362436203F02C
:10569000C3F888B90E4BE3679C63002205219C2068
:1056A00002F018FE9C2002F04BFE49E5FEF7EAFBF3
:1056B00095E7FEF7E7FBD5E7FEF7E4FBEAE700BF77
:1056C0000044025800100258B83A00241004024066
:1056D000303B002440040240DFF834D0FFF72CF9BF
:1056E0000C480D490D4A002302E0D458C45004333D
:1056F000C4188C42F9D30A4A0A4C002301E0136013
:105700000432A242FBD312F017F9FEF73BFC7047BC
:1057100000000524000000240C0D0024A4DD010875
:10572000100D0024F4AB0024FEE7000038B5044659
:105730009022D0F8F8100848FBF7A2FB48252A462B
:10574000D4F81C110548FBF79BFB2A46D4F80C1132
:105750000348FBF795FB38BD700100244841002445
:10576000004100242DE9F04F85B0044600F1780592
:1057700000F180073946284612F04BF884F8C8003B
:10578000B4F87830A4F8A830B4F85A30A4F8AA30A5
:1057900004F1580A04F1A80842465146284611F07F
:1057A0009EFE84F8C800B4F8A830A4F8B030B4F86D
:1057B0008230A4F8B23004F1B0094A463946404676
:1057C00011F08DFE84F8C800B4F89030A4F8A03031
:1057D000B4F89230A4F8A23004F1A0052A4604F1EE
:1057E0009001484611F030FA84F8C800494628462E
:1057F00011F0E8FA84F8C800D4F8EC301A68039283
:105800005A6802929A680192DB680093B4F8783083
:10581000A4F8B8300123A4F8BA30DDED027A9DED8A
:10582000007A67EE877A9DED037ADDED016A27EE57
:10583000267A77EEC77AD4F82C3177EEA77AC3EDC3
:10584000007ADDED037A9DED027A67EE877A9DEDB1
:10585000017ADDED006A27EE267A77EE877AD4F8B2
:105860002C3177EEA77AC3ED017ADDED037A9DED59
:10587000037A67EE877A9DED027ADDED026A27EE04
:10588000267A77EEC77A9DED017ADDED016A27EE83
:10589000267A77EEC77A9DED007ADDED006A27EE75
:1058A000267AD4F82C3177EE877AC3ED027A002578
:1058B00012E0D4F82C3103EB850393ED000AB0EE2F
:1058C000C00A10F093FE05F16002B44B03EB8203B3
:1058D00083ED010A0135EDB2022DEAD9B4F8483062
:1058E000A4F8C0304FF0010BA4F8C2B004F1B80521
:1058F00004F1C0063246294604F1480011F0E3FEE7
:1059000084F8C800B4F8C030A4F8A830A4F8AAB04D
:1059100042463146484611F0E2FD84F8C800A4F83A
:10592000B8B0B4F8C030A4F8BA302946304611F007
:1059300070FF84F8C800DFF864B20BF5E0724146EE
:10594000284611F0CCFD84F8C8009BED727ADBED9F
:10595000737AF6EE006A67EEA66AB4EEE67AF1EEC6
:1059600010FA02D501228BF83821B4EEE77AF1EE75
:1059700010FA45DD894B93F83831002B40D0874B26
:1059800093F83931DBB1854AD2F84031D2F844116D
:10599000013341F10001C2F84031C2F844117F4B9C
:1059A000D3F84021D3F84431332A73F100030CD3E8
:1059B00000237A4A82F8383184F82C3046E0774B5D
:1059C00000200021C3E95001E9E7227B744D2B88B8
:1059D00003FB02F2D4F8EC10D4F8E800FBF750FA1D
:1059E000227B2B8802FB03F303FB02F2D4F8FC10AA
:1059F000D4F8F800FBF744FA012384F82C309AE03D
:105A0000DFED686A67EEA66AB4EEE67AF1EE10FAA8
:105A10000FDD624B93F838315BB137EEC77ADFEDBB
:105A2000626A67EEA67AC7EE276A5C4BC3ED676AC7
:105A300004E05A4B4FF07E52C3F89C21574B002094
:105A40000021C3E95001002384F82C30B4F8583009
:105A5000A4F8A830B4F88230A4F8AA3042463946F7
:105A6000504611F03CFD84F8C80004F198073A460E
:105A70004946404611F033FD84F8C80000230EE08B
:105A8000D4F81C2102EB8302444991ED677AD2EDF0
:105A9000007A67EE877AC2ED007A0133DBB2B4F8A0
:105AA0009820B4F89A1001FB02F29342E8DB04223A
:105AB00001E00132D2B2052A1DD80023022BF8D80A
:105AC000D4F81C1102EB4200184401EB800102F1F2
:105AD0005C0C324800EB8C00D0ED016ADFED337ACC
:105AE00086EEA77AD1ED007A67EE877AC1ED007A6B
:105AF0000133DBB2E2E7B4F89830A4F8B830012300
:105B0000A4F8BA302A463146384611F0E8FC84F849
